{"contracts/GangsterGarage.sol":{"GangsterGarage":{"abi":[{"inputs":[{"internalType":"string","name":"_carName","type":"string"}],"name":"addCar","outputs":[],"stateMutability":"nonpayable","type":"function"},{"inputs":[{"internalType":"uint256","name":"","type":"uint256"}],"name":"cars","outputs":[{"internalType":"string","name":"","type":"string"}],"stateMutability":"view","type":"function"},{"inputs":[],"name":"getCarCount","outputs":[{"internalType":"uint256","name":"","type":"uint256"}],"stateMutability":"view","type":"function"}],"evm":{"bytecode":{"linkReferences":{},"object":"608060405234801561001057600080fd5b50610785806100206000396000f3fe608060405234801561001057600080fd5b50600436106100415760003560e01c806327436b591461004657806363f71d8b14610064578063f7746e3614610080575b600080fd5b61004e6100b0565b60405161005b91906101b9565b60405180910390f35b61007e6004803603810190610079919061032e565b6100bc565b005b61009a600480360381019061009591906103a3565b6100f4565b6040516100a7919061044f565b60405180910390f35b60008080549050905090565b6000819080600181540180825580915050600190039060005260206000200160009091909190915090816100f0919061067d565b5050565b6000818154811061010457600080fd5b90600052602060002001600091509050805461011f906104a0565b80601f016020809104026020016040519081016040528092919081815260200182805461014b906104a0565b80156101985780601f1061016d57610100808354040283529160200191610198565b820191906000526020600020905b81548152906001019060200180831161017b57829003601f168201915b505050505081565b6000819050919050565b6101b3816101a0565b82525050565b60006020820190506101ce60008301846101aa565b92915050565b6000604051905090565b600080fd5b600080fd5b600080fd5b600080fd5b6000601f19601f8301169050919050565b7f4e487b7100000000000000000000000000000000000000000000000000000000600052604160045260246000fd5b61023b826101f2565b810181811067ffffffffffffffff8211171561025a57610259610203565b5b80604052505050565b600061026d6101d4565b90506102798282610232565b919050565b600067ffffffffffffffff82111561029957610298610203565b5b6102a2826101f2565b9050602081019050919050565b82818337600083830152505050565b60006102d16102cc8461027e565b610263565b9050828152602081018484840111156102ed576102ec6101ed565b5b6102f88482856102af565b509392505050565b600082601f830112610315576103146101e8565b5b81356103258482602086016102be565b91505092915050565b600060208284031215610344576103436101de565b5b600082013567ffffffffffffffff811115610362576103616101e3565b5b61036e84828501610300565b91505092915050565b610380816101a0565b811461038b57600080fd5b50565b60008135905061039d81610377565b92915050565b6000602082840312156103b9576103b86101de565b5b60006103c78482850161038e565b91505092915050565b600081519050919050565b600082825260208201905092915050565b60005b8381101561040a5780820151818401526020810190506103ef565b60008484015250505050565b6000610421826103d0565b61042b81856103db565b935061043b8185602086016103ec565b610444816101f2565b840191505092915050565b600060208201905081810360008301526104698184610416565b905092915050565b7f4e487b7100000000000000000000000000000000000000000000000000000000600052602260045260246000fd5b600060028204905060018216806104b857607f821691505b6020821081036104cb576104ca610471565b5b50919050565b60008190508160005260206000209050919050565b60006020601f8301049050919050565b600082821b905092915050565b6000600883026105337fffffffffffffffffffffffffffffffffffffffffffffffffffffffffffffffff826104f6565b61053d86836104f6565b95508019841693508086168417925050509392505050565b6000819050919050565b600061057a610575610570846101a0565b610555565b6101a0565b9050919050565b6000819050919050565b6105948361055f565b6105a86105a082610581565b848454610503565b825550505050565b600090565b6105bd6105b0565b6105c881848461058b565b505050565b5b818110156105ec576105e16000826105b5565b6001810190506105ce565b5050565b601f82111561063157610602816104d1565b61060b846104e6565b8101602085101561061a578190505b61062e610626856104e6565b8301826105cd565b50505b505050565b600082821c905092915050565b600061065460001984600802610636565b1980831691505092915050565b600061066d8383610643565b9150826002028217905092915050565b610686826103d0565b67ffffffffffffffff81111561069f5761069e610203565b5b6106a982546104a0565b6106b48282856105f0565b600060209050601f8311600181146106e757600084156106d5578287015190505b6106df8582610661565b865550610747565b601f1984166106f5866104d1565b60005b8281101561071d578489015182556001820191506020850194506020810190506106f8565b8683101561073a5784890151610736601f891682610643565b8355505b6001600288020188555050505b50505050505056fea2646970667358221220e3890a575fcf783581c4aab0499dddd630417b85e6ff00a01dbe8cfcf736aa3f64736f6c63430008180033","opcodes":"PUSH1 0x80 PUSH1 0x40 MSTORE CALLVALUE DUP1 ISZERO PUSH2 0x10 JUMPI PUSH1 0x0 DUP1 REVERT JUMPDEST POP PUSH2 0x785 DUP1 PUSH2 0x20 PUSH1 0x0 CODECOPY PUSH1 0x0 RETURN INVALID PUSH1 0x80 PUSH1 0x40 MSTORE CALLVALUE DUP1 ISZERO PUSH2 0x10 JUMPI PUSH1 0x0 DUP1 REVERT JUMPDEST POP PUSH1 0x4 CALLDATASIZE LT PUSH2 0x41 JUMPI PUSH1 0x0 CALLDATALOAD PUSH1 0xE0 SHR DUP1 PUSH4 0x27436B59 EQ PUSH2 0x46 JUMPI DUP1 PUSH4 0x63F71D8B EQ PUSH2 0x64 JUMPI DUP1 PUSH4 0xF7746E36 EQ PUSH2 0x80 JUMPI JUMPDEST PUSH1 0x0 DUP1 REVERT JUMPDEST PUSH2 0x4E PUSH2 0xB0 JUMP JUMPDEST PUSH1 0x40 MLOAD PUSH2 0x5B SWAP2 SWAP1 PUSH2 0x1B9 JUMP JUMPDEST PUSH1 0x40 MLOAD DUP1 SWAP2 SUB SWAP1 RETURN JUMPDEST PUSH2 0x7E PUSH1 0x4 DUP1 CALLDATASIZE SUB DUP2 ADD SWAP1 PUSH2 0x79 SWAP2 SWAP1 PUSH2 0x32E JUMP JUMPDEST PUSH2 0xBC JUMP JUMPDEST STOP JUMPDEST PUSH2 0x9A PUSH1 0x4 DUP1 CALLDATASIZE SUB DUP2 ADD SWAP1 PUSH2 0x95 SWAP2 SWAP1 PUSH2 0x3A3 JUMP JUMPDEST PUSH2 0xF4 JUMP JUMPDEST PUSH1 0x40 MLOAD PUSH2 0xA7 SWAP2 SWAP1 PUSH2 0x44F JUMP JUMPDEST PUSH1 0x40 MLOAD DUP1 SWAP2 SUB SWAP1 RETURN JUMPDEST PUSH1 0x0 DUP1 DUP1 SLOAD SWAP1 POP SWAP1 POP SWAP1 JUMP JUMPDEST PUSH1 0x0 DUP2 SWAP1 DUP1 PUSH1 0x1 DUP2 SLOAD ADD DUP1 DUP3 SSTORE DUP1 SWAP2 POP POP PUSH1 0x1 SWAP1 SUB SWAP1 PUSH1 0x0 MSTORE PUSH1 0x20 PUSH1 0x0 KECCAK256 ADD PUSH1 0x0 SWAP1 SWAP2 SWAP1 SWAP2 SWAP1 SWAP2 POP SWAP1 DUP2 PUSH2 0xF0 SWAP2 SWAP1 PUSH2 0x67D JUMP JUMPDEST POP POP JUMP JUMPDEST PUSH1 0x0 DUP2 DUP2 SLOAD DUP2 LT PUSH2 0x104 JUMPI PUSH1 0x0 DUP1 REVERT JUMPDEST SWAP1 PUSH1 0x0 MSTORE PUSH1 0x20 PUSH1 0x0 KECCAK256 ADD PUSH1 0x0 SWAP2 POP SWAP1 POP DUP1 SLOAD PUSH2 0x11F SWAP1 PUSH2 0x4A0 JUMP JUMPDEST DUP1 PUSH1 0x1F ADD PUSH1 0x20 DUP1 SWAP2 DIV MUL PUSH1 0x20 ADD PUSH1 0x40 MLOAD SWAP1 DUP2 ADD PUSH1 0x40 MSTORE DUP1 SWAP3 SWAP2 SWAP1 DUP2 DUP2 MSTORE PUSH1 0x20 ADD DUP3 DUP1 SLOAD PUSH2 0x14B SWAP1 PUSH2 0x4A0 JUMP JUMPDEST DUP1 ISZERO PUSH2 0x198 JUMPI DUP1 PUSH1 0x1F LT PUSH2 0x16D JUMPI PUSH2 0x100 DUP1 DUP4 SLOAD DIV MUL DUP4 MSTORE SWAP2 PUSH1 0x20 ADD SWAP2 PUSH2 0x198 JUMP JUMPDEST DUP3 ADD SWAP2 SWAP1 PUSH1 0x0 MSTORE PUSH1 0x20 PUSH1 0x0 KECCAK256 SWAP1 JUMPDEST DUP2 SLOAD DUP2 MSTORE SWAP1 PUSH1 0x1 ADD SWAP1 PUSH1 0x20 ADD DUP1 DUP4 GT PUSH2 0x17B JUMPI DUP3 SWAP1 SUB PUSH1 0x1F AND DUP3 ADD SWAP2 JUMPDEST POP POP POP POP POP DUP2 JUMP JUMPDEST PUSH1 0x0 DUP2 SWAP1 POP SWAP2 SWAP1 POP JUMP JUMPDEST PUSH2 0x1B3 DUP2 PUSH2 0x1A0 JUMP JUMPDEST DUP3 MSTORE POP POP JUMP JUMPDEST PUSH1 0x0 PUSH1 0x20 DUP3 ADD SWAP1 POP PUSH2 0x1CE PUSH1 0x0 DUP4 ADD DUP5 PUSH2 0x1AA JUMP JUMPDEST SWAP3 SWAP2 POP POP JUMP JUMPDEST PUSH1 0x0 PUSH1 0x40 MLOAD SWAP1 POP SWAP1 JUMP JUMPDEST PUSH1 0x0 DUP1 REVERT JUMPDEST PUSH1 0x0 DUP1 REVERT JUMPDEST PUSH1 0x0 DUP1 REVERT JUMPDEST PUSH1 0x0 DUP1 REVERT JUMPDEST PUSH1 0x0 PUSH1 0x1F NOT PUSH1 0x1F DUP4 ADD AND SWAP1 POP SWAP2 SWAP1 POP JUMP JUMPDEST PUSH32 0x4E487B7100000000000000000000000000000000000000000000000000000000 PUSH1 0x0 MSTORE PUSH1 0x41 PUSH1 0x4 MSTORE PUSH1 0x24 PUSH1 0x0 REVERT JUMPDEST PUSH2 0x23B DUP3 PUSH2 0x1F2 JUMP JUMPDEST DUP2 ADD DUP2 DUP2 LT PUSH8 0xFFFFFFFFFFFFFFFF DUP3 GT OR ISZERO PUSH2 0x25A JUMPI PUSH2 0x259 PUSH2 0x203 JUMP JUMPDEST JUMPDEST DUP1 PUSH1 0x40 MSTORE POP POP POP JUMP JUMPDEST PUSH1 0x0 PUSH2 0x26D PUSH2 0x1D4 JUMP JUMPDEST SWAP1 POP PUSH2 0x279 DUP3 DUP3 PUSH2 0x232 JUMP JUMPDEST SWAP2 SWAP1 POP JUMP JUMPDEST PUSH1 0x0 PUSH8 0xFFFFFFFFFFFFFFFF DUP3 GT ISZERO PUSH2 0x299 JUMPI PUSH2 0x298 PUSH2 0x203 JUMP JUMPDEST JUMPDEST PUSH2 0x2A2 DUP3 PUSH2 0x1F2 JUMP JUMPDEST SWAP1 POP PUSH1 0x20 DUP2 ADD SWAP1 POP SWAP2 SWAP1 POP JUMP JUMPDEST DUP3 DUP2 DUP4 CALLDATACOPY PUSH1 0x0 DUP4 DUP4 ADD MSTORE POP POP POP JUMP JUMPDEST PUSH1 0x0 PUSH2 0x2D1 PUSH2 0x2CC DUP5 PUSH2 0x27E JUMP JUMPDEST PUSH2 0x263 JUMP JUMPDEST SWAP1 POP DUP3 DUP2 MSTORE PUSH1 0x20 DUP2 ADD DUP5 DUP5 DUP5 ADD GT ISZERO PUSH2 0x2ED JUMPI PUSH2 0x2EC PUSH2 0x1ED JUMP JUMPDEST JUMPDEST PUSH2 0x2F8 DUP5 DUP3 DUP6 PUSH2 0x2AF JUMP JUMPDEST POP SWAP4 SWAP3 POP POP POP JUMP JUMPDEST PUSH1 0x0 DUP3 PUSH1 0x1F DUP4 ADD SLT PUSH2 0x315 JUMPI PUSH2 0x314 PUSH2 0x1E8 JUMP JUMPDEST JUMPDEST DUP2 CALLDATALOAD PUSH2 0x325 DUP5 DUP3 PUSH1 0x20 DUP7 ADD PUSH2 0x2BE JUMP JUMPDEST SWAP2 POP POP SWAP3 SWAP2 POP POP JUMP JUMPDEST PUSH1 0x0 PUSH1 0x20 DUP3 DUP5 SUB SLT ISZERO PUSH2 0x344 JUMPI PUSH2 0x343 PUSH2 0x1DE JUMP JUMPDEST JUMPDEST PUSH1 0x0 DUP3 ADD CALLDATALOAD PUSH8 0xFFFFFFFFFFFFFFFF DUP2 GT ISZERO PUSH2 0x362 JUMPI PUSH2 0x361 PUSH2 0x1E3 JUMP JUMPDEST JUMPDEST PUSH2 0x36E DUP5 DUP3 DUP6 ADD PUSH2 0x300 JUMP JUMPDEST SWAP2 POP POP SWAP3 SWAP2 POP POP JUMP JUMPDEST PUSH2 0x380 DUP2 PUSH2 0x1A0 JUMP JUMPDEST DUP2 EQ PUSH2 0x38B JUMPI PUSH1 0x0 DUP1 REVERT JUMPDEST POP JUMP JUMPDEST PUSH1 0x0 DUP2 CALLDATALOAD SWAP1 POP PUSH2 0x39D DUP2 PUSH2 0x377 JUMP JUMPDEST SWAP3 SWAP2 POP POP JUMP JUMPDEST PUSH1 0x0 PUSH1 0x20 DUP3 DUP5 SUB SLT ISZERO PUSH2 0x3B9 JUMPI PUSH2 0x3B8 PUSH2 0x1DE JUMP JUMPDEST JUMPDEST PUSH1 0x0 PUSH2 0x3C7 DUP5 DUP3 DUP6 ADD PUSH2 0x38E JUMP JUMPDEST SWAP2 POP POP SWAP3 SWAP2 POP POP JUMP JUMPDEST PUSH1 0x0 DUP2 MLOAD SWAP1 POP SWAP2 SWAP1 POP JUMP JUMPDEST PUSH1 0x0 DUP3 DUP3 MSTORE PUSH1 0x20 DUP3 ADD SWAP1 POP SWAP3 SWAP2 POP POP JUMP JUMPDEST PUSH1 0x0 JUMPDEST DUP4 DUP2 LT ISZERO PUSH2 0x40A JUMPI DUP1 DUP3 ADD MLOAD DUP2 DUP5 ADD MSTORE PUSH1 0x20 DUP2 ADD SWAP1 POP PUSH2 0x3EF JUMP JUMPDEST PUSH1 0x0 DUP5 DUP5 ADD MSTORE POP POP POP POP JUMP JUMPDEST PUSH1 0x0 PUSH2 0x421 DUP3 PUSH2 0x3D0 JUMP JUMPDEST PUSH2 0x42B DUP2 DUP6 PUSH2 0x3DB JUMP JUMPDEST SWAP4 POP PUSH2 0x43B DUP2 DUP6 PUSH1 0x20 DUP7 ADD PUSH2 0x3EC JUMP JUMPDEST PUSH2 0x444 DUP2 PUSH2 0x1F2 JUMP JUMPDEST DUP5 ADD SWAP2 POP POP SWAP3 SWAP2 POP POP JUMP JUMPDEST PUSH1 0x0 PUSH1 0x20 DUP3 ADD SWAP1 POP DUP2 DUP2 SUB PUSH1 0x0 DUP4 ADD MSTORE PUSH2 0x469 DUP2 DUP5 PUSH2 0x416 JUMP JUMPDEST SWAP1 POP SWAP3 SWAP2 POP POP JUMP JUMPDEST PUSH32 0x4E487B7100000000000000000000000000000000000000000000000000000000 PUSH1 0x0 MSTORE PUSH1 0x22 PUSH1 0x4 MSTORE PUSH1 0x24 PUSH1 0x0 REVERT JUMPDEST PUSH1 0x0 PUSH1 0x2 DUP3 DIV SWAP1 POP PUSH1 0x1 DUP3 AND DUP1 PUSH2 0x4B8 JUMPI PUSH1 0x7F DUP3 AND SWAP2 POP JUMPDEST PUSH1 0x20 DUP3 LT DUP2 SUB PUSH2 0x4CB JUMPI PUSH2 0x4CA PUSH2 0x471 JUMP JUMPDEST JUMPDEST POP SWAP2 SWAP1 POP JUMP JUMPDEST PUSH1 0x0 DUP2 SWAP1 POP DUP2 PUSH1 0x0 MSTORE PUSH1 0x20 PUSH1 0x0 KECCAK256 SWAP1 POP SWAP2 SWAP1 POP JUMP JUMPDEST PUSH1 0x0 PUSH1 0x20 PUSH1 0x1F DUP4 ADD DIV SWAP1 POP SWAP2 SWAP1 POP JUMP JUMPDEST PUSH1 0x0 DUP3 DUP3 SHL SWAP1 POP SWAP3 SWAP2 POP POP JUMP JUMPDEST PUSH1 0x0 PUSH1 0x8 DUP4 MUL PUSH2 0x533 PUSH32 0xFFFFFFFFFFFFFFFFFFFFFFFFFFFFFFFFFFFFFFFFFFFFFFFFFFFFFFFFFFFFFFFF DUP3 PUSH2 0x4F6 JUMP JUMPDEST PUSH2 0x53D DUP7 DUP4 PUSH2 0x4F6 JUMP JUMPDEST SWAP6 POP DUP1 NOT DUP5 AND SWAP4 POP DUP1 DUP7 AND DUP5 OR SWAP3 POP POP POP SWAP4 SWAP3 POP POP POP JUMP JUMPDEST PUSH1 0x0 DUP2 SWAP1 POP SWAP2 SWAP1 POP JUMP JUMPDEST PUSH1 0x0 PUSH2 0x57A PUSH2 0x575 PUSH2 0x570 DUP5 PUSH2 0x1A0 JUMP JUMPDEST PUSH2 0x555 JUMP JUMPDEST PUSH2 0x1A0 JUMP JUMPDEST SWAP1 POP SWAP2 SWAP1 POP JUMP JUMPDEST PUSH1 0x0 DUP2 SWAP1 POP SWAP2 SWAP1 POP JUMP JUMPDEST PUSH2 0x594 DUP4 PUSH2 0x55F JUMP JUMPDEST PUSH2 0x5A8 PUSH2 0x5A0 DUP3 PUSH2 0x581 JUMP JUMPDEST DUP5 DUP5 SLOAD PUSH2 0x503 JUMP JUMPDEST DUP3 SSTORE POP POP POP POP JUMP JUMPDEST PUSH1 0x0 SWAP1 JUMP JUMPDEST PUSH2 0x5BD PUSH2 0x5B0 JUMP JUMPDEST PUSH2 0x5C8 DUP2 DUP5 DUP5 PUSH2 0x58B JUMP JUMPDEST POP POP POP JUMP JUMPDEST JUMPDEST DUP2 DUP2 LT ISZERO PUSH2 0x5EC JUMPI PUSH2 0x5E1 PUSH1 0x0 DUP3 PUSH2 0x5B5 JUMP JUMPDEST PUSH1 0x1 DUP2 ADD SWAP1 POP PUSH2 0x5CE JUMP JUMPDEST POP POP JUMP JUMPDEST PUSH1 0x1F DUP3 GT ISZERO PUSH2 0x631 JUMPI PUSH2 0x602 DUP2 PUSH2 0x4D1 JUMP JUMPDEST PUSH2 0x60B DUP5 PUSH2 0x4E6 JUMP JUMPDEST DUP2 ADD PUSH1 0x20 DUP6 LT ISZERO PUSH2 0x61A JUMPI DUP2 SWAP1 POP JUMPDEST PUSH2 0x62E PUSH2 0x626 DUP6 PUSH2 0x4E6 JUMP JUMPDEST DUP4 ADD DUP3 PUSH2 0x5CD JUMP JUMPDEST POP POP JUMPDEST POP POP POP JUMP JUMPDEST PUSH1 0x0 DUP3 DUP3 SHR SWAP1 POP SWAP3 SWAP2 POP POP JUMP JUMPDEST PUSH1 0x0 PUSH2 0x654 PUSH1 0x0 NOT DUP5 PUSH1 0x8 MUL PUSH2 0x636 JUMP JUMPDEST NOT DUP1 DUP4 AND SWAP2 POP POP SWAP3 SWAP2 POP POP JUMP JUMPDEST PUSH1 0x0 PUSH2 0x66D DUP4 DUP4 PUSH2 0x643 JUMP JUMPDEST SWAP2 POP DUP3 PUSH1 0x2 MUL DUP3 OR SWAP1 POP SWAP3 SWAP2 POP POP JUMP JUMPDEST PUSH2 0x686 DUP3 PUSH2 0x3D0 JUMP JUMPDEST PUSH8 0xFFFFFFFFFFFFFFFF DUP2 GT ISZERO PUSH2 0x69F JUMPI PUSH2 0x69E PUSH2 0x203 JUMP JUMPDEST JUMPDEST PUSH2 0x6A9 DUP3 SLOAD PUSH2 0x4A0 JUMP JUMPDEST PUSH2 0x6B4 DUP3 DUP3 DUP6 PUSH2 0x5F0 JUMP JUMPDEST PUSH1 0x0 PUSH1 0x20 SWAP1 POP PUSH1 0x1F DUP4 GT PUSH1 0x1 DUP2 EQ PUSH2 0x6E7 JUMPI PUSH1 0x0 DUP5 ISZERO PUSH2 0x6D5 JUMPI DUP3 DUP8 ADD MLOAD SWAP1 POP JUMPDEST PUSH2 0x6DF DUP6 DUP3 PUSH2 0x661 JUMP JUMPDEST DUP7 SSTORE POP PUSH2 0x747 JUMP JUMPDEST PUSH1 0x1F NOT DUP5 AND PUSH2 0x6F5 DUP7 PUSH2 0x4D1 JUMP JUMPDEST PUSH1 0x0 JUMPDEST DUP3 DUP2 LT ISZERO PUSH2 0x71D JUMPI DUP5 DUP10 ADD MLOAD DUP3 SSTORE PUSH1 0x1 DUP3 ADD SWAP2 POP PUSH1 0x20 DUP6 ADD SWAP5 POP PUSH1 0x20 DUP2 ADD SWAP1 POP PUSH2 0x6F8 JUMP JUMPDEST DUP7 DUP4 LT ISZERO PUSH2 0x73A JUMPI DUP5 DUP10 ADD MLOAD PUSH2 0x736 PUSH1 0x1F DUP10 AND DUP3 PUSH2 0x643 JUMP JUMPDEST DUP4 SSTORE POP JUMPDEST PUSH1 0x1 PUSH1 0x2 DUP9 MUL ADD DUP9 SSTORE POP POP POP JUMPDEST POP POP POP POP POP POP JUMP INVALID LOG2 PUSH5 0x6970667358 0x22 SLT KECCAK256 0xE3 DUP10 EXP JUMPI PUSH0 0xCF PUSH25 0x3581C4AAB0499DDDD630417B85E6FF00A01DBE8CFCF736AA3F PUSH5 0x736F6C6343 STOP ADDMOD XOR STOP CALLER "},"methodIdentifiers":{"addCar(string)":"63f71d8b","cars(uint256)":"f7746e36","getCarCount()":"27436b59"}}}}}