{
  "_format": "hh-sol-artifact-1",
  "contractName": "LosSantosLegend",
  "sourceName": "contracts/LosSantosLegend.sol",
  "abi": [
    {
      "inputs": [
        {
          "internalType": "string",
          "name": "_name",
          "type": "string"
        },
        {
          "internalType": "string",
          "name": "_bio",
          "type": "string"
        }
      ],
      "stateMutability": "nonpayable",
      "type": "constructor"
    },
    {
      "inputs": [],
      "name": "bio",
      "outputs": [
        {
          "internalType": "string",
          "name": "",
          "type": "string"
        }
      ],
      "stateMutability": "view",
      "type": "function"
    },
    {
      "inputs": [],
      "name": "name",
      "outputs": [
        {
          "internalType": "string",
          "name": "",
          "type": "string"
        }
      ],
      "stateMutability": "view",
      "type": "function"
    }
  ],
  "bytecode": "0x608060405234801561001057600080fd5b5061076f806100206000396000f3fe608060405234801561001057600080fd5b50600436106100415760003560e01c806306fdde0314610046578063633fc50914610064578063f516b42214610080575b600080fd5b61004e61009e565b60405161005b919061026e565b60405180910390f35b61007e600480360381019061007991906103d9565b61012c565b005b610088610150565b604051610095919061026e565b60405180910390f35b600080546100ab90610480565b80601f01602080910402602001604051908101604052809291908181526020018280546100d790610480565b80156101245780601f106100f957610100808354040283529160200191610124565b820191906000526020600020905b81548152906001019060200180831161010757829003601f168201915b505050505081565b816000908161013b9190610667565b50806001908161014b9190610667565b505050565b6001805461015d90610480565b80601f016020809104026020016040519081016040528092919081815260200182805461018990610480565b80156101d65780601f106101ab576101008083540402835291602001916101d6565b820191906000526020600020905b8154815290600101906020018083116101b957829003601f168201915b505050505081565b600081519050919050565b600082825260208201905092915050565b60005b838110156102185780820151818401526020810190506101fd565b60008484015250505050565b6000601f19601f8301169050919050565b6000610240826101de565b61024a81856101e9565b935061025a8185602086016101fa565b61026381610224565b840191505092915050565b600060208201905081810360008301526102888184610235565b905092915050565b6000604051905090565b600080fd5b600080fd5b600080fd5b600080fd5b7f4e487b7100000000000000000000000000000000000000000000000000000000600052604160045260246000fd5b6102e682610224565b810181811067ffffffffffffffff82111715610305576103046102ae565b5b80604052505050565b6000610318610290565b905061032482826102dd565b919050565b600067ffffffffffffffff821115610344576103436102ae565b5b61034d82610224565b9050602081019050919050565b82818337600083830152505050565b600061037c61037784610329565b61030e565b905082815260208101848484011115610398576103976102a9565b5b6103a384828561035a565b509392505050565b600082601f8301126103c0576103bf6102a4565b5b81356103d0848260208601610369565b91505092915050565b600080604083850312156103f0576103ef61029a565b5b600083013567ffffffffffffffff81111561040e5761040d61029f565b5b61041a858286016103ab565b925050602083013567ffffffffffffffff81111561043b5761043a61029f565b5b610447858286016103ab565b9150509250929050565b7f4e487b7100000000000000000000000000000000000000000000000000000000600052602260045260246000fd5b6000600282049050600182168061049857607f821691505b6020821081036104ab576104aa610451565b5b50919050565b60008190508160005260206000209050919050565b60006020601f8301049050919050565b600082821b905092915050565b6000600883026105137fffffffffffffffffffffffffffffffffffffffffffffffffffffffffffffffff826104d6565b61051d86836104d6565b95508019841693508086168417925050509392505050565b6000819050919050565b6000819050919050565b600061056461055f61055a84610535565b61053f565b610535565b9050919050565b6000819050919050565b61057e83610549565b61059261058a8261056b565b8484546104e3565b825550505050565b600090565b6105a761059a565b6105b2818484610575565b505050565b5b818110156105d6576105cb60008261059f565b6001810190506105b8565b5050565b601f82111561061b576105ec816104b1565b6105f5846104c6565b81016020851015610604578190505b610618610610856104c6565b8301826105b7565b50505b505050565b600082821c905092915050565b600061063e60001984600802610620565b1980831691505092915050565b6000610657838361062d565b9150826002028217905092915050565b610670826101de565b67ffffffffffffffff811115610689576106886102ae565b5b6106938254610480565b61069e8282856105da565b600060209050601f8311600181146106d157600084156106bf578287015190505b6106c9858261064b565b865550610731565b601f1984166106df866104b1565b60005b82811015610707578489015182556001820191506020850194506020810190506106e2565b868310156107245784890151610720601f89168261062d565b8355505b6001600288020188555050505b50505050505056fea2646970667358221220a15a54db1d882eaf9b964c26e5b1ae6476376695aa1252a1930cc24c239da84c64736f6c63430008180033",
  "linkReferences": {},
  "deployedLinkReferences": {}
}