{
  "_format": "hh-sol-artifact-1",
  "contractName": "GangsterGarage",
  "sourceName": "contracts/GangsterGarage.sol",
  "abi": [
    {
      "inputs": [
        {
          "internalType": "string",
          "name": "_carName",
          "type": "string"
        }
      ],
      "name": "addCar",
      "outputs": [],
      "stateMutability": "nonpayable",
      "type": "function"
    },
    {
      "inputs": [
        {
          "internalType": "uint256",
          "name": "",
          "type": "uint256"
        }
      ],
      "name": "cars",
      "outputs": [
        {
          "internalType": "string",
          "name": "",
          "type": "string"
        }
      ],
      "stateMutability": "view",
      "type": "function"
    },
    {
      "inputs": [],
      "name": "getCarCount",
      "outputs": [
        {
          "internalType": "uint256",
          "name": "",
          "type": "uint256"
        }
      ],
      "stateMutability": "view",
      "type": "function"
    },
    {
      "inputs": [
        {
          "internalType": "string",
          "name": "_carName",
          "type": "string"
        }
      ],
      "name": "sellCar",
      "outputs": [],
      "stateMutability": "nonpayable",
      "type": "function"
    }
  ],
  "bytecode": "0x608060405234801561001057600080fd5b50610bfa806100206000396000f3fe608060405234801561001057600080fd5b506004361061004c5760003560e01c806327436b591461005157806363f71d8b1461006f578063baba03ca1461008b578063f7746e36146100a7575b600080fd5b6100596100d7565b604051610066919061036d565b60405180910390f35b610089600480360381019061008491906104e2565b6100e3565b005b6100a560048036038101906100a091906104e2565b61011b565b005b6100c160048036038101906100bc9190610557565b61024b565b6040516100ce9190610603565b60405180910390f35b60008080549050905090565b6000819080600181540180825580915050600190039060005260206000200160009091909190915090816101179190610831565b5050565b6000805b60008054905081101561023c578260405160200161013d919061093f565b604051602081830303815290604052805190602001206000828154811061016757610166610956565b5b906000526020600020016040516020016101819190610a08565b604051602081830303815290604052805190602001200361022f57600060016000805490506101b09190610a4e565b815481106101c1576101c0610956565b5b90600052602060002001600082815481106101df576101de610956565b5b9060005260206000200190816101f59190610aad565b50600080548061020857610207610b95565b5b60019003818190600052602060002001600061022491906102f7565b90556001915061023c565b808060010191505061011f565b508061024757600080fd5b5050565b6000818154811061025b57600080fd5b90600052602060002001600091509050805461027690610654565b80601f01602080910402602001604051908101604052809291908181526020018280546102a290610654565b80156102ef5780601f106102c4576101008083540402835291602001916102ef565b820191906000526020600020905b8154815290600101906020018083116102d257829003601f168201915b505050505081565b50805461030390610654565b6000825580601f106103155750610334565b601f0160209004906000526020600020908101906103339190610337565b5b50565b5b80821115610350576000816000905550600101610338565b5090565b6000819050919050565b61036781610354565b82525050565b6000602082019050610382600083018461035e565b92915050565b6000604051905090565b600080fd5b600080fd5b600080fd5b600080fd5b6000601f19601f8301169050919050565b7f4e487b7100000000000000000000000000000000000000000000000000000000600052604160045260246000fd5b6103ef826103a6565b810181811067ffffffffffffffff8211171561040e5761040d6103b7565b5b80604052505050565b6000610421610388565b905061042d82826103e6565b919050565b600067ffffffffffffffff82111561044d5761044c6103b7565b5b610456826103a6565b9050602081019050919050565b82818337600083830152505050565b600061048561048084610432565b610417565b9050828152602081018484840111156104a1576104a06103a1565b5b6104ac848285610463565b509392505050565b600082601f8301126104c9576104c861039c565b5b81356104d9848260208601610472565b91505092915050565b6000602082840312156104f8576104f7610392565b5b600082013567ffffffffffffffff81111561051657610515610397565b5b610522848285016104b4565b91505092915050565b61053481610354565b811461053f57600080fd5b50565b6000813590506105518161052b565b92915050565b60006020828403121561056d5761056c610392565b5b600061057b84828501610542565b91505092915050565b600081519050919050565b600082825260208201905092915050565b60005b838110156105be5780820151818401526020810190506105a3565b60008484015250505050565b60006105d582610584565b6105df818561058f565b93506105ef8185602086016105a0565b6105f8816103a6565b840191505092915050565b6000602082019050818103600083015261061d81846105ca565b905092915050565b7f4e487b7100000000000000000000000000000000000000000000000000000000600052602260045260246000fd5b6000600282049050600182168061066c57607f821691505b60208210810361067f5761067e610625565b5b50919050565b60008190508160005260206000209050919050565b60006020601f8301049050919050565b600082821b905092915050565b6000600883026106e77fffffffffffffffffffffffffffffffffffffffffffffffffffffffffffffffff826106aa565b6106f186836106aa565b95508019841693508086168417925050509392505050565b6000819050919050565b600061072e61072961072484610354565b610709565b610354565b9050919050565b6000819050919050565b61074883610713565b61075c61075482610735565b8484546106b7565b825550505050565b600090565b610771610764565b61077c81848461073f565b505050565b5b818110156107a057610795600082610769565b600181019050610782565b5050565b601f8211156107e5576107b681610685565b6107bf8461069a565b810160208510156107ce578190505b6107e26107da8561069a565b830182610781565b50505b505050565b600082821c905092915050565b6000610808600019846008026107ea565b1980831691505092915050565b600061082183836107f7565b9150826002028217905092915050565b61083a82610584565b67ffffffffffffffff811115610853576108526103b7565b5b61085d8254610654565b6108688282856107a4565b600060209050601f83116001811461089b5760008415610889578287015190505b6108938582610815565b8655506108fb565b601f1984166108a986610685565b60005b828110156108d1578489015182556001820191506020850194506020810190506108ac565b868310156108ee57848901516108ea601f8916826107f7565b8355505b6001600288020188555050505b505050505050565b600081905092915050565b600061091982610584565b6109238185610903565b93506109338185602086016105a0565b80840191505092915050565b600061094b828461090e565b915081905092915050565b7f4e487b7100000000000000000000000000000000000000000000000000000000600052603260045260246000fd5b6000815461099281610654565b61099c8186610903565b945060018216600081146109b757600181146109cc576109ff565b60ff19831686528115158202860193506109ff565b6109d585610685565b60005b838110156109f7578154818901526001820191506020810190506109d8565b838801955050505b50505092915050565b6000610a148284610985565b915081905092915050565b7f4e487b7100000000000000000000000000000000000000000000000000000000600052601160045260246000fd5b6000610a5982610354565b9150610a6483610354565b9250828203905081811115610a7c57610a7b610a1f565b5b92915050565b600081549050610a9181610654565b9050919050565b60008190508160005260206000209050919050565b818103610abb575050610b93565b610ac482610a82565b67ffffffffffffffff811115610add57610adc6103b7565b5b610ae78254610654565b610af28282856107a4565b6000601f831160018114610b215760008415610b0f578287015490505b610b198582610815565b865550610b8c565b601f198416610b2f87610a98565b9650610b3a86610685565b60005b82811015610b6257848901548255600182019150600185019450602081019050610b3d565b86831015610b7f5784890154610b7b601f8916826107f7565b8355505b6001600288020188555050505b5050505050505b565b7f4e487b7100000000000000000000000000000000000000000000000000000000600052603160045260246000fdfea26469706673582212208be08f36311c846eccac95b618413c6e1a1a29db73b44096b2da4e8f2442283164736f6c63430008180033",
  "linkReferences": {},
  "deployedLinkReferences": {}
}