{
  "_format": "hh-sol-artifact-1",
  "contractName": "GTAIntro",
  "sourceName": "contracts/GTAIntro.sol",
  "abi": [
    {
      "inputs": [],
      "name": "getDialogue",
      "outputs": [
        {
          "internalType": "string",
          "name": "",
          "type": "string"
        }
      ],
      "stateMutability": "pure",
      "type": "function"
    }
  ],
  "bytecode": "0x608060405234801561001057600080fd5b50610186806100206000396000f3fe608060405234801561001057600080fd5b506004361061002b5760003560e01c8063992323be14610030575b600080fd5b61003861004e565b60405161004591906100fe565b60405180910390f35b606060405180606001604052806030815260200161012160309139905090565b600081519050919050565b600082825260208201905092915050565b60005b838110156100a857808201518184015260208101905061008d565b60008484015250505050565b6000601f19601f8301169050919050565b60006100d08261006e565b6100da8185610079565b93506100ea81856020860161008a565b6100f3816100b4565b840191505092915050565b6000602082019050818103600083015261011881846100c5565b90509291505056fe576879206469642049206d6f766520686572653f2049206775657373206974207761732074686520776561746865722ea26469706673582212200523380f41bc938febcd58fdcbc4f6401d1664b3cc6d1cc32dc17532e48cd14164736f6c63430008180033",
  "linkReferences": {},
  "deployedLinkReferences": {}
}